{
  "_format": "hh-sol-artifact-1",
  "contractName": "NFC",
  "sourceName": "contracts/NFC.sol",
  "abi": [
    {
      "anonymous": false,
      "inputs": [
        {
          "indexed": true,
          "internalType": "uint256",
          "name": "id",
          "type": "uint256"
        },
        {
          "indexed": false,
          "internalType": "address[]",
          "name": "accounts",
          "type": "address[]"
        }
      ],
      "name": "AccountsAdded",
      "type": "event"
    },
    {
      "anonymous": false,
      "inputs": [
        {
          "indexed": true,
          "internalType": "address",
          "name": "owner",
          "type": "address"
        },
        {
          "indexed": true,
          "internalType": "address",
          "name": "approved",
          "type": "address"
        },
        {
          "indexed": true,
          "internalType": "uint256",
          "name": "tokenId",
          "type": "uint256"
        }
      ],
      "name": "Approval",
      "type": "event"
    },
    {
      "anonymous": false,
      "inputs": [
        {
          "indexed": true,
          "internalType": "address",
          "name": "owner",
          "type": "address"
        },
        {
          "indexed": true,
          "internalType": "address",
          "name": "operator",
          "type": "address"
        },
        {
          "indexed": false,
          "internalType": "bool",
          "name": "approved",
          "type": "bool"
        }
      ],
      "name": "ApprovalForAll",
      "type": "event"
    },
    {
      "anonymous": false,
      "inputs": [
        {
          "indexed": false,
          "internalType": "string",
          "name": "uri",
          "type": "string"
        }
      ],
      "name": "BaseURIUpdated",
      "type": "event"
    },
    {
      "anonymous": false,
      "inputs": [
        {
          "indexed": true,
          "internalType": "uint256",
          "name": "id",
          "type": "uint256"
        },
        {
          "indexed": false,
          "internalType": "string",
          "name": "uri",
          "type": "string"
        }
      ],
      "name": "CustomURIUpdated",
      "type": "event"
    },
    {
      "anonymous": false,
      "inputs": [
        {
          "indexed": true,
          "internalType": "uint256",
          "name": "id",
          "type": "uint256"
        },
        {
          "indexed": false,
          "internalType": "address[]",
          "name": "accounts",
          "type": "address[]"
        }
      ],
      "name": "NFCCreated",
      "type": "event"
    },
    {
      "anonymous": false,
      "inputs": [
        {
          "indexed": true,
          "internalType": "uint256",
          "name": "id",
          "type": "uint256"
        },
        {
          "indexed": false,
          "internalType": "uint256[]",
          "name": "ids",
          "type": "uint256[]"
        }
      ],
      "name": "NFCMerged",
      "type": "event"
    },
    {
      "anonymous": false,
      "inputs": [
        {
          "indexed": true,
          "internalType": "address",
          "name": "previousOwner",
          "type": "address"
        },
        {
          "indexed": true,
          "internalType": "address",
          "name": "newOwner",
          "type": "address"
        }
      ],
      "name": "OwnershipTransferred",
      "type": "event"
    },
    {
      "anonymous": false,
      "inputs": [
        {
          "indexed": true,
          "internalType": "address",
          "name": "from",
          "type": "address"
        },
        {
          "indexed": true,
          "internalType": "address",
          "name": "to",
          "type": "address"
        },
        {
          "indexed": true,
          "internalType": "uint256",
          "name": "tokenId",
          "type": "uint256"
        }
      ],
      "name": "Transfer",
      "type": "event"
    },
    {
      "inputs": [
        {
          "internalType": "address[]",
          "name": "accounts",
          "type": "address[]"
        },
        {
          "internalType": "bytes[]",
          "name": "signatures",
          "type": "bytes[]"
        }
      ],
      "name": "addAccounts",
      "outputs": [],
      "stateMutability": "nonpayable",
      "type": "function"
    },
    {
      "inputs": [
        {
          "internalType": "address",
          "name": "to",
          "type": "address"
        },
        {
          "internalType": "uint256",
          "name": "tokenId",
          "type": "uint256"
        }
      ],
      "name": "approve",
      "outputs": [],
      "stateMutability": "nonpayable",
      "type": "function"
    },
    {
      "inputs": [
        {
          "internalType": "address",
          "name": "owner",
          "type": "address"
        }
      ],
      "name": "balanceOf",
      "outputs": [
        {
          "internalType": "uint256",
          "name": "",
          "type": "uint256"
        }
      ],
      "stateMutability": "view",
      "type": "function"
    },
    {
      "inputs": [],
      "name": "counter",
      "outputs": [
        {
          "internalType": "uint256",
          "name": "",
          "type": "uint256"
        }
      ],
      "stateMutability": "view",
      "type": "function"
    },
    {
      "inputs": [
        {
          "internalType": "uint256",
          "name": "id",
          "type": "uint256"
        }
      ],
      "name": "getAddresses",
      "outputs": [
        {
          "internalType": "address[]",
          "name": "",
          "type": "address[]"
        }
      ],
      "stateMutability": "view",
      "type": "function"
    },
    {
      "inputs": [
        {
          "internalType": "uint256",
          "name": "tokenId",
          "type": "uint256"
        }
      ],
      "name": "getApproved",
      "outputs": [
        {
          "internalType": "address",
          "name": "",
          "type": "address"
        }
      ],
      "stateMutability": "view",
      "type": "function"
    },
    {
      "inputs": [
        {
          "internalType": "address",
          "name": "account",
          "type": "address"
        }
      ],
      "name": "getNFCId",
      "outputs": [
        {
          "internalType": "uint256",
          "name": "",
          "type": "uint256"
        }
      ],
      "stateMutability": "view",
      "type": "function"
    },
    {
      "inputs": [],
      "name": "initialize",
      "outputs": [],
      "stateMutability": "nonpayable",
      "type": "function"
    },
    {
      "inputs": [
        {
          "internalType": "address",
          "name": "owner",
          "type": "address"
        },
        {
          "internalType": "address",
          "name": "operator",
          "type": "address"
        }
      ],
      "name": "isApprovedForAll",
      "outputs": [
        {
          "internalType": "bool",
          "name": "",
          "type": "bool"
        }
      ],
      "stateMutability": "view",
      "type": "function"
    },
    {
      "inputs": [
        {
          "internalType": "uint256[]",
          "name": "ids",
          "type": "uint256[]"
        },
        {
          "internalType": "bytes[]",
          "name": "signatures",
          "type": "bytes[]"
        }
      ],
      "name": "merge",
      "outputs": [],
      "stateMutability": "nonpayable",
      "type": "function"
    },
    {
      "inputs": [],
      "name": "mint",
      "outputs": [
        {
          "internalType": "uint256",
          "name": "",
          "type": "uint256"
        }
      ],
      "stateMutability": "nonpayable",
      "type": "function"
    },
    {
      "inputs": [
        {
          "internalType": "address[]",
          "name": "accounts",
          "type": "address[]"
        },
        {
          "internalType": "bytes[]",
          "name": "signatures",
          "type": "bytes[]"
        }
      ],
      "name": "mintAndAdd",
      "outputs": [
        {
          "internalType": "uint256",
          "name": "id",
          "type": "uint256"
        }
      ],
      "stateMutability": "nonpayable",
      "type": "function"
    },
    {
      "inputs": [],
      "name": "name",
      "outputs": [
        {
          "internalType": "string",
          "name": "",
          "type": "string"
        }
      ],
      "stateMutability": "view",
      "type": "function"
    },
    {
      "inputs": [],
      "name": "owner",
      "outputs": [
        {
          "internalType": "address",
          "name": "",
          "type": "address"
        }
      ],
      "stateMutability": "view",
      "type": "function"
    },
    {
      "inputs": [
        {
          "internalType": "uint256",
          "name": "tokenId",
          "type": "uint256"
        }
      ],
      "name": "ownerOf",
      "outputs": [
        {
          "internalType": "address",
          "name": "",
          "type": "address"
        }
      ],
      "stateMutability": "view",
      "type": "function"
    },
    {
      "inputs": [],
      "name": "renounceOwnership",
      "outputs": [],
      "stateMutability": "nonpayable",
      "type": "function"
    },
    {
      "inputs": [
        {
          "internalType": "address",
          "name": "from",
          "type": "address"
        },
        {
          "internalType": "address",
          "name": "to",
          "type": "address"
        },
        {
          "internalType": "uint256",
          "name": "tokenId",
          "type": "uint256"
        }
      ],
      "name": "safeTransferFrom",
      "outputs": [],
      "stateMutability": "nonpayable",
      "type": "function"
    },
    {
      "inputs": [
        {
          "internalType": "address",
          "name": "from",
          "type": "address"
        },
        {
          "internalType": "address",
          "name": "to",
          "type": "address"
        },
        {
          "internalType": "uint256",
          "name": "tokenId",
          "type": "uint256"
        },
        {
          "internalType": "bytes",
          "name": "_data",
          "type": "bytes"
        }
      ],
      "name": "safeTransferFrom",
      "outputs": [],
      "stateMutability": "nonpayable",
      "type": "function"
    },
    {
      "inputs": [
        {
          "internalType": "address",
          "name": "operator",
          "type": "address"
        },
        {
          "internalType": "bool",
          "name": "approved",
          "type": "bool"
        }
      ],
      "name": "setApprovalForAll",
      "outputs": [],
      "stateMutability": "nonpayable",
      "type": "function"
    },
    {
      "inputs": [
        {
          "internalType": "string",
          "name": "baseURI",
          "type": "string"
        }
      ],
      "name": "setBaseURI",
      "outputs": [],
      "stateMutability": "nonpayable",
      "type": "function"
    },
    {
      "inputs": [
        {
          "internalType": "string",
          "name": "_customUri",
          "type": "string"
        }
      ],
      "name": "setCustomURI",
      "outputs": [],
      "stateMutability": "nonpayable",
      "type": "function"
    },
    {
      "inputs": [
        {
          "internalType": "bytes4",
          "name": "interfaceId",
          "type": "bytes4"
        }
      ],
      "name": "supportsInterface",
      "outputs": [
        {
          "internalType": "bool",
          "name": "",
          "type": "bool"
        }
      ],
      "stateMutability": "view",
      "type": "function"
    },
    {
      "inputs": [],
      "name": "symbol",
      "outputs": [
        {
          "internalType": "string",
          "name": "",
          "type": "string"
        }
      ],
      "stateMutability": "view",
      "type": "function"
    },
    {
      "inputs": [
        {
          "internalType": "uint256",
          "name": "tokenId",
          "type": "uint256"
        }
      ],
      "name": "tokenURI",
      "outputs": [
        {
          "internalType": "string",
          "name": "",
          "type": "string"
        }
      ],
      "stateMutability": "view",
      "type": "function"
    },
    {
      "inputs": [
        {
          "internalType": "address",
          "name": "from",
          "type": "address"
        },
        {
          "internalType": "address",
          "name": "to",
          "type": "address"
        },
        {
          "internalType": "uint256",
          "name": "tokenId",
          "type": "uint256"
        }
      ],
      "name": "transferFrom",
      "outputs": [],
      "stateMutability": "nonpayable",
      "type": "function"
    },
    {
      "inputs": [
        {
          "internalType": "address",
          "name": "newOwner",
          "type": "address"
        }
      ],
      "name": "transferOwnership",
      "outputs": [],
      "stateMutability": "nonpayable",
      "type": "function"
    }
  ],
  "bytecode": "0x608060405234801561001057600080fd5b506137e9806100206000396000f3fe608060405234801561001057600080fd5b50600436106101ae5760003560e01c8063715018a6116100ee578063b88d4fde11610097578063c87b56dd11610071578063c87b56dd1461035c578063e985e9c51461036f578063ec4788cd146103ab578063f2fde38b146103cb57600080fd5b8063b88d4fde14610323578063c22f123314610336578063c870c0121461034957600080fd5b806395d89b41116100c857806395d89b41146102f55780639746d495146102fd578063a22cb4651461031057600080fd5b8063715018a6146102d45780638129fc1c146102dc5780638da5cb5b146102e457600080fd5b80632d96f70d1161015b57806355f804b31161013557806355f804b31461029257806361bc221a146102a55780636352211e146102ae57806370a08231146102c157600080fd5b80632d96f70d14610259578063376e4a801461026c57806342842e0e1461027f57600080fd5b8063095ea7b31161018c578063095ea7b31461021b5780631249c58b1461023057806323b872dd1461024657600080fd5b806301ffc9a7146101b357806306fdde03146101db578063081812fc146101f0575b600080fd5b6101c66101c1366004612e72565b6103de565b60405190151581526020015b60405180910390f35b6101e36104c3565b6040516101d29190612ee7565b6102036101fe366004612efa565b610555565b6040516001600160a01b0390911681526020016101d2565b61022e610229366004612f2f565b610600565b005b610238610732565b6040519081526020016101d2565b61022e610254366004612f59565b61084c565b610238610267366004612f95565b6108d3565b61022e61027a366004613134565b610939565b61022e61028d366004612f59565b610c45565b61022e6102a03660046131f4565b610c60565b61023860cb5481565b6102036102bc366004612efa565b610d04565b6102386102cf366004612f95565b610d8f565b61022e610e29565b61022e610e8f565b6097546001600160a01b0316610203565b6101e3611012565b61023861030b366004613134565b611021565b61022e61031e366004613266565b611037565b61022e6103313660046132a2565b611046565b61022e61034436600461330a565b6110d4565b61022e6103573660046131f4565b611465565b6101e361036a366004612efa565b6114c2565b6101c661037d366004613396565b6001600160a01b039182166000908152606a6020908152604080832093909416825291909152205460ff1690565b6103be6103b9366004612efa565b611598565b6040516101d291906133c9565b61022e6103d9366004612f95565b611604565b60007fffffffff0000000000000000000000000000000000000000000000000000000082167f80ac58cd00000000000000000000000000000000000000000000000000000000148061047157507fffffffff0000000000000000000000000000000000000000000000000000000082167f5b5e139f00000000000000000000000000000000000000000000000000000000145b806104bd57507f01ffc9a7000000000000000000000000000000000000000000000000000000007fffffffff000000000000000000000000000000000000000000000000000000008316145b92915050565b6060606580546104d290613416565b80601f01602080910402602001604051908101604052809291908181526020018280546104fe90613416565b801561054b5780601f106105205761010080835404028352916020019161054b565b820191906000526020600020905b81548152906001019060200180831161052e57829003601f168201915b5050505050905090565b6000818152606760205260408120546001600160a01b03166105e45760405162461bcd60e51b815260206004820152602c60248201527f4552433732313a20617070726f76656420717565727920666f72206e6f6e657860448201527f697374656e7420746f6b656e000000000000000000000000000000000000000060648201526084015b60405180910390fd5b506000908152606960205260409020546001600160a01b031690565b600061060b82610d04565b9050806001600160a01b0316836001600160a01b031614156106955760405162461bcd60e51b815260206004820152602160248201527f4552433732313a20617070726f76616c20746f2063757272656e74206f776e6560448201527f720000000000000000000000000000000000000000000000000000000000000060648201526084016105db565b336001600160a01b03821614806106b157506106b1813361037d565b6107235760405162461bcd60e51b815260206004820152603860248201527f4552433732313a20617070726f76652063616c6c6572206973206e6f74206f7760448201527f6e6572206e6f7220617070726f76656420666f7220616c6c000000000000000060648201526084016105db565b61072d83836116e3565b505050565b33600090815260ca60205260408120541561078f5760405162461bcd60e51b815260206004820152601260248201527f4e46435f414c52454144595f455849535453000000000000000000000000000060448201526064016105db565b60cb8054600091826107a083613499565b90915550600081815260c9602090815260408083203380855260ca845291842085905580546001810182558185529290932090910180547fffffffffffffffffffffffff000000000000000000000000000000000000000016821790559192509061080b9083611769565b817fe2813d28765f4525cf95f9d415b2dcad9740fc89cc29475be1e924b744a2ba188260000160405161083e91906134d2565b60405180910390a250919050565b61085633826118cf565b6108c85760405162461bcd60e51b815260206004820152603160248201527f4552433732313a207472616e736665722063616c6c6572206973206e6f74206f60448201527f776e6572206e6f7220617070726f76656400000000000000000000000000000060648201526084016105db565b61072d8383836119d7565b6001600160a01b038116600090815260ca6020526040812054806104bd5760405162461bcd60e51b815260206004820152600d60248201527f4e46435f4e4f545f464f554e440000000000000000000000000000000000000060448201526064016105db565b805182511461098a5760405162461bcd60e51b815260206004820152601560248201527f41525241595f4c454e4754485f4d49534d41544348000000000000000000000060448201526064016105db565b6000610995336108d3565b600081815260c9602052604081209192505b8451811015610c065760008582815181106109c4576109c4613516565b6020026020010151905060ca6000826001600160a01b03166001600160a01b0316815260200190815260200160002054600014610a366040518060400160405280600e81526020017f414c52454144595f494e5f4e464300000000000000000000000000000000000081525083611bc7565b90610a545760405162461bcd60e51b81526004016105db9190612ee7565b506040517fffffffffffffffffffffffffffffffffffffffff00000000000000000000000033606090811b8216602084015230901b166034820152466048820152600090610b00906068015b60408051601f1981840301815282825280516020918201207f19457468657265756d205369676e6564204d6573736167653a0a33320000000084830152603c8085019190915282518085039091018152605c909301909152815191012090565b9050816001600160a01b0316610b38878581518110610b2157610b21613516565b602002602001015183611c0690919063ffffffff16565b6001600160a01b031614610b816040518060400160405280601181526020017f494e56414c49445f5349474e415455524500000000000000000000000000000081525084611bc7565b90610b9f5760405162461bcd60e51b81526004016105db9190612ee7565b50506001600160a01b0316600081815260ca602090815260408220869055845460018101865585835291200180547fffffffffffffffffffffffff000000000000000000000000000000000000000016909117905580610bfe81613499565b9150506109a7565b50817f177778edaa8393afd930ca7aad7ce9ab4ffe4019e049e3fc87abe61c0d2c906985604051610c3791906133c9565b60405180910390a250505050565b61072d83838360405180602001604052806000815250611046565b6097546001600160a01b03163314610cba5760405162461bcd60e51b815260206004820181905260248201527f4f776e61626c653a2063616c6c6572206973206e6f7420746865206f776e657260448201526064016105db565b610cc660cc8383612cc1565b507f6741b2fc379fad678116fe3d4d4b9a1a184ab53ba36b86ad0fa66340b1ab41ad8282604051610cf8929190613545565b60405180910390a15050565b6000818152606760205260408120546001600160a01b0316806104bd5760405162461bcd60e51b815260206004820152602960248201527f4552433732313a206f776e657220717565727920666f72206e6f6e657869737460448201527f656e7420746f6b656e000000000000000000000000000000000000000000000060648201526084016105db565b60006001600160a01b038216610e0d5760405162461bcd60e51b815260206004820152602a60248201527f4552433732313a2062616c616e636520717565727920666f7220746865207a6560448201527f726f20616464726573730000000000000000000000000000000000000000000060648201526084016105db565b506001600160a01b031660009081526068602052604090205490565b6097546001600160a01b03163314610e835760405162461bcd60e51b815260206004820181905260248201527f4f776e61626c653a2063616c6c6572206973206e6f7420746865206f776e657260448201526064016105db565b610e8d6000611c2a565b565b600054610100900460ff16610eaa5760005460ff1615610eae565b303b155b610f205760405162461bcd60e51b815260206004820152602e60248201527f496e697469616c697a61626c653a20636f6e747261637420697320616c72656160448201527f647920696e697469616c697a656400000000000000000000000000000000000060648201526084016105db565b600054610100900460ff16158015610f5f57600080547fffffffffffffffffffffffffffffffffffffffffffffffffffffffffffff0000166101011790555b610f67611c94565b610fdb6040518060400160405280601381526020017f4e6f6e2046756e6769626c6520437265646974000000000000000000000000008152506040518060400160405280600381526020017f4e46430000000000000000000000000000000000000000000000000000000000815250611d21565b600160cb55801561100f57600080547fffffffffffffffffffffffffffffffffffffffffffffffffffffffffffff00ff1690555b50565b6060606680546104d290613416565b600061102b610732565b90506104bd8383610939565b611042338383611db8565b5050565b61105033836118cf565b6110c25760405162461bcd60e51b815260206004820152603160248201527f4552433732313a207472616e736665722063616c6c6572206973206e6f74206f60448201527f776e6572206e6f7220617070726f76656400000000000000000000000000000060648201526084016105db565b6110ce84848484611ea5565b50505050565b80518251146111255760405162461bcd60e51b815260206004820152601560248201527f41525241595f4c454e4754485f4d49534d41544348000000000000000000000060448201526064016105db565b6000611130336108d3565b600081815260c9602052604081209192505b845181101561145e57600085828151811061115f5761115f613516565b6020026020010151905060006111e386848151811061118057611180613516565b60200260200101516111dd333046604051602001610aa093929190606093841b7fffffffffffffffffffffffffffffffffffffffff00000000000000000000000090811682529290931b9091166014830152602882015260480190565b90611c06565b90508160ca6000836001600160a01b03166001600160a01b03168152602001908152602001600020541461124c6040518060400160405280601181526020017f5349474e45525f4e4f545f494e5f4e464300000000000000000000000000000081525084611f2e565b9061126a5760405162461bcd60e51b81526004016105db9190612ee7565b50600082815260c960209081526040808320805482518185028101850190935280835291929091908301828280156112cb57602002820191906000526020600020905b81546001600160a01b031681526001909101906020018083116112ad575b5050505050905060005b81518110156113a057856000018282815181106112f4576112f4613516565b6020908102919091018101518254600181018455600093845291832090910180547fffffffffffffffffffffffff0000000000000000000000000000000000000000166001600160a01b039092169190911790558251889160ca9185908590811061136157611361613516565b60200260200101516001600160a01b03166001600160a01b0316815260200190815260200160002081905550808061139890613499565b9150506112d5565b5060c960008986815181106113b7576113b7613516565b60200260200101518152602001908152602001600020600080820160006113de9190612d63565b6113ec600183016000612d81565b505061141088858151811061140357611403613516565b6020026020010151611f3a565b857fae3177abcfcda71ffcbe1dae10ff4b6d537cddc3a47ec67f692ed3b65087599e896040516114409190613574565b60405180910390a2505050808061145690613499565b915050611142565b5050505050565b6000611470336108d3565b600081815260c96020526040902090915061148f600182018585612cc1565b50817fc085294540bb5beefb88a6c72aaba35edae5cf4220db1ea4edc9720fbe8de5348585604051610c37929190613545565b6060816114dd57505060408051602081019091526000815290565b600082815260c96020526040812060010180546114f990613416565b80601f016020809104026020016040519081016040528092919081815260200182805461152590613416565b80156115725780601f1061154757610100808354040283529160200191611572565b820191906000526020600020905b81548152906001019060200180831161155557829003601f168201915b5050505050905080516000146115885792915050565b61159183611ff9565b9392505050565b600081815260c960209081526040918290208054835181840281018401909452808452606093928301828280156115f857602002820191906000526020600020905b81546001600160a01b031681526001909101906020018083116115da575b50505050509050919050565b6097546001600160a01b0316331461165e5760405162461bcd60e51b815260206004820181905260248201527f4f776e61626c653a2063616c6c6572206973206e6f7420746865206f776e657260448201526064016105db565b6001600160a01b0381166116da5760405162461bcd60e51b815260206004820152602660248201527f4f776e61626c653a206e6577206f776e657220697320746865207a65726f206160448201527f646472657373000000000000000000000000000000000000000000000000000060648201526084016105db565b61100f81611c2a565b600081815260696020526040902080547fffffffffffffffffffffffff0000000000000000000000000000000000000000166001600160a01b038416908117909155819061173082610d04565b6001600160a01b03167f8c5be1e5ebec7d5bd14f71427d1e84f3dd0314c0f7b2291e5b200ac8c7c3b92560405160405180910390a45050565b6001600160a01b0382166117bf5760405162461bcd60e51b815260206004820181905260248201527f4552433732313a206d696e7420746f20746865207a65726f206164647265737360448201526064016105db565b6000818152606760205260409020546001600160a01b0316156118245760405162461bcd60e51b815260206004820152601c60248201527f4552433732313a20746f6b656e20616c7265616479206d696e7465640000000060448201526064016105db565b611830600083836120e1565b6001600160a01b03821660009081526068602052604081208054600192906118599084906135ac565b909155505060008181526067602052604080822080547fffffffffffffffffffffffff0000000000000000000000000000000000000000166001600160a01b03861690811790915590518392907fddf252ad1be2c89b69c2b068fc378daa952ba7f163c4a11628f55a4df523b3ef908290a45050565b6000818152606760205260408120546001600160a01b03166119595760405162461bcd60e51b815260206004820152602c60248201527f4552433732313a206f70657261746f7220717565727920666f72206e6f6e657860448201527f697374656e7420746f6b656e000000000000000000000000000000000000000060648201526084016105db565b600061196483610d04565b9050806001600160a01b0316846001600160a01b0316148061199f5750836001600160a01b031661199484610555565b6001600160a01b0316145b806119cf57506001600160a01b038082166000908152606a602090815260408083209388168352929052205460ff165b949350505050565b826001600160a01b03166119ea82610d04565b6001600160a01b031614611a665760405162461bcd60e51b815260206004820152602960248201527f4552433732313a207472616e73666572206f6620746f6b656e2074686174206960448201527f73206e6f74206f776e000000000000000000000000000000000000000000000060648201526084016105db565b6001600160a01b038216611ae15760405162461bcd60e51b8152602060048201526024808201527f4552433732313a207472616e7366657220746f20746865207a65726f2061646460448201527f726573730000000000000000000000000000000000000000000000000000000060648201526084016105db565b611aec8383836120e1565b611af76000826116e3565b6001600160a01b0383166000908152606860205260408120805460019290611b209084906135c4565b90915550506001600160a01b0382166000908152606860205260408120805460019290611b4e9084906135ac565b909155505060008181526067602052604080822080547fffffffffffffffffffffffff0000000000000000000000000000000000000000166001600160a01b0386811691821790925591518493918716917fddf252ad1be2c89b69c2b068fc378daa952ba7f163c4a11628f55a4df523b3ef91a4505050565b606082611bde6001600160a01b038416601461214a565b604051602001611bef9291906135db565b604051602081830303815290604052905092915050565b6000806000611c158585612373565b91509150611c22816123e3565b509392505050565b609780546001600160a01b038381167fffffffffffffffffffffffff0000000000000000000000000000000000000000831681179093556040519116919082907f8be0079c531659141344cd1fd0a4f28419497f9722a3daafe3b4186f6b6457e090600090a35050565b600054610100900460ff16611d115760405162461bcd60e51b815260206004820152602b60248201527f496e697469616c697a61626c653a20636f6e7472616374206973206e6f74206960448201527f6e697469616c697a696e6700000000000000000000000000000000000000000060648201526084016105db565b611d196125d4565b610e8d612651565b600054610100900460ff16611d9e5760405162461bcd60e51b815260206004820152602b60248201527f496e697469616c697a61626c653a20636f6e7472616374206973206e6f74206960448201527f6e697469616c697a696e6700000000000000000000000000000000000000000060648201526084016105db565b611da66125d4565b611dae6125d4565b61104282826126d7565b816001600160a01b0316836001600160a01b03161415611e1a5760405162461bcd60e51b815260206004820152601960248201527f4552433732313a20617070726f766520746f2063616c6c65720000000000000060448201526064016105db565b6001600160a01b038381166000818152606a602090815260408083209487168084529482529182902080547fffffffffffffffffffffffffffffffffffffffffffffffffffffffffffffff001686151590811790915591519182527f17307eab39ab6107e8899845ad3d59bd9653f200f220920489ca2b5937696c31910160405180910390a3505050565b611eb08484846119d7565b611ebc8484848461277b565b6110ce5760405162461bcd60e51b815260206004820152603260248201527f4552433732313a207472616e7366657220746f206e6f6e20455243373231526560448201527f63656976657220696d706c656d656e746572000000000000000000000000000060648201526084016105db565b606082611bde83612919565b6000611f4582610d04565b9050611f53816000846120e1565b611f5e6000836116e3565b6001600160a01b0381166000908152606860205260408120805460019290611f879084906135c4565b909155505060008281526067602052604080822080547fffffffffffffffffffffffff0000000000000000000000000000000000000000169055518391906001600160a01b038416907fddf252ad1be2c89b69c2b068fc378daa952ba7f163c4a11628f55a4df523b3ef908390a45050565b6000818152606760205260409020546060906001600160a01b03166120865760405162461bcd60e51b815260206004820152602f60248201527f4552433732314d657461646174613a2055524920717565727920666f72206e6f60448201527f6e6578697374656e7420746f6b656e000000000000000000000000000000000060648201526084016105db565b6000612090612a4b565b905060008151116120b05760405180602001604052806000815250611591565b806120ba84612a5a565b6040516020016120cb929190613633565b6040516020818303038152906040529392505050565b6001600160a01b03831615806120fe57506001600160a01b038216155b61072d5760405162461bcd60e51b815260206004820152601460248201527f4e46435f4e4f545f5452414e5346455241424c4500000000000000000000000060448201526064016105db565b60606000612159836002613662565b6121649060026135ac565b67ffffffffffffffff81111561217c5761217c612fb0565b6040519080825280601f01601f1916602001820160405280156121a6576020820181803683370190505b5090507f3000000000000000000000000000000000000000000000000000000000000000816000815181106121dd576121dd613516565b60200101907effffffffffffffffffffffffffffffffffffffffffffffffffffffffffffff1916908160001a9053507f78000000000000000000000000000000000000000000000000000000000000008160018151811061224057612240613516565b60200101907effffffffffffffffffffffffffffffffffffffffffffffffffffffffffffff1916908160001a905350600061227c846002613662565b6122879060016135ac565b90505b6001811115612324577f303132333435363738396162636465660000000000000000000000000000000085600f16601081106122c8576122c8613516565b1a60f81b8282815181106122de576122de613516565b60200101907effffffffffffffffffffffffffffffffffffffffffffffffffffffffffffff1916908160001a90535060049490941c9361231d8161369f565b905061228a565b5083156115915760405162461bcd60e51b815260206004820181905260248201527f537472696e67733a20686578206c656e67746820696e73756666696369656e7460448201526064016105db565b6000808251604114156123aa5760208301516040840151606085015160001a61239e87828585612b8c565b945094505050506123dc565b8251604014156123d457602083015160408401516123c9868383612c79565b9350935050506123dc565b506000905060025b9250929050565b60008160048111156123f7576123f76136d4565b14156124005750565b6001816004811115612414576124146136d4565b14156124625760405162461bcd60e51b815260206004820152601860248201527f45434453413a20696e76616c6964207369676e6174757265000000000000000060448201526064016105db565b6002816004811115612476576124766136d4565b14156124c45760405162461bcd60e51b815260206004820152601f60248201527f45434453413a20696e76616c6964207369676e6174757265206c656e6774680060448201526064016105db565b60038160048111156124d8576124d86136d4565b141561254c5760405162461bcd60e51b815260206004820152602260248201527f45434453413a20696e76616c6964207369676e6174757265202773272076616c60448201527f756500000000000000000000000000000000000000000000000000000000000060648201526084016105db565b6004816004811115612560576125606136d4565b141561100f5760405162461bcd60e51b815260206004820152602260248201527f45434453413a20696e76616c6964207369676e6174757265202776272076616c60448201527f756500000000000000000000000000000000000000000000000000000000000060648201526084016105db565b600054610100900460ff16610e8d5760405162461bcd60e51b815260206004820152602b60248201527f496e697469616c697a61626c653a20636f6e7472616374206973206e6f74206960448201527f6e697469616c697a696e6700000000000000000000000000000000000000000060648201526084016105db565b600054610100900460ff166126ce5760405162461bcd60e51b815260206004820152602b60248201527f496e697469616c697a61626c653a20636f6e7472616374206973206e6f74206960448201527f6e697469616c697a696e6700000000000000000000000000000000000000000060648201526084016105db565b610e8d33611c2a565b600054610100900460ff166127545760405162461bcd60e51b815260206004820152602b60248201527f496e697469616c697a61626c653a20636f6e7472616374206973206e6f74206960448201527f6e697469616c697a696e6700000000000000000000000000000000000000000060648201526084016105db565b8151612767906065906020850190612dbb565b50805161072d906066906020840190612dbb565b60006001600160a01b0384163b1561290e576040517f150b7a020000000000000000000000000000000000000000000000000000000081526001600160a01b0385169063150b7a02906127d8903390899088908890600401613703565b6020604051808303816000875af1925050508015612813575060408051601f3d908101601f191682019092526128109181019061373f565b60015b6128c3573d808015612841576040519150601f19603f3d011682016040523d82523d6000602084013e612846565b606091505b5080516128bb5760405162461bcd60e51b815260206004820152603260248201527f4552433732313a207472616e7366657220746f206e6f6e20455243373231526560448201527f63656976657220696d706c656d656e746572000000000000000000000000000060648201526084016105db565b805181602001fd5b7fffffffff00000000000000000000000000000000000000000000000000000000167f150b7a02000000000000000000000000000000000000000000000000000000001490506119cf565b506001949350505050565b60608161295957505060408051808201909152600181527f3000000000000000000000000000000000000000000000000000000000000000602082015290565b8160005b8115612983578061296d81613499565b915061297c9050600a8361378b565b915061295d565b60008167ffffffffffffffff81111561299e5761299e612fb0565b6040519080825280601f01601f1916602001820160405280156129c8576020820181803683370190505b5090505b84156119cf576129dd6001836135c4565b91506129ea600a8661379f565b6129f59060306135ac565b60f81b818381518110612a0a57612a0a613516565b60200101907effffffffffffffffffffffffffffffffffffffffffffffffffffffffffffff1916908160001a905350612a44600a8661378b565b94506129cc565b606060cc80546104d290613416565b606081612a9a57505060408051808201909152600181527f3000000000000000000000000000000000000000000000000000000000000000602082015290565b8160005b8115612ac45780612aae81613499565b9150612abd9050600a8361378b565b9150612a9e565b60008167ffffffffffffffff811115612adf57612adf612fb0565b6040519080825280601f01601f191660200182016040528015612b09576020820181803683370190505b5090505b84156119cf57612b1e6001836135c4565b9150612b2b600a8661379f565b612b369060306135ac565b60f81b818381518110612b4b57612b4b613516565b60200101907effffffffffffffffffffffffffffffffffffffffffffffffffffffffffffff1916908160001a905350612b85600a8661378b565b9450612b0d565b6000807f7fffffffffffffffffffffffffffffff5d576e7357a4501ddfe92f46681b20a0831115612bc35750600090506003612c70565b8460ff16601b14158015612bdb57508460ff16601c14155b15612bec5750600090506004612c70565b6040805160008082526020820180845289905260ff881692820192909252606081018690526080810185905260019060a0016020604051602081039080840390855afa158015612c40573d6000803e3d6000fd5b5050604051601f1901519150506001600160a01b038116612c6957600060019250925050612c70565b9150600090505b94509492505050565b6000807f7fffffffffffffffffffffffffffffffffffffffffffffffffffffffffffffff831660ff84901c601b01612cb387828885612b8c565b935093505050935093915050565b828054612ccd90613416565b90600052602060002090601f016020900481019282612cef5760008555612d53565b82601f10612d26578280017fffffffffffffffffffffffffffffffffffffffffffffffffffffffffffffff00823516178555612d53565b82800160010185558215612d53579182015b82811115612d53578235825591602001919060010190612d38565b50612d5f929150612e2f565b5090565b508054600082559060005260206000209081019061100f9190612e2f565b508054612d8d90613416565b6000825580601f10612d9d575050565b601f01602090049060005260206000209081019061100f9190612e2f565b828054612dc790613416565b90600052602060002090601f016020900481019282612de95760008555612d53565b82601f10612e0257805160ff1916838001178555612d53565b82800160010185558215612d53579182015b82811115612d53578251825591602001919060010190612e14565b5b80821115612d5f5760008155600101612e30565b7fffffffff000000000000000000000000000000000000000000000000000000008116811461100f57600080fd5b600060208284031215612e8457600080fd5b813561159181612e44565b60005b83811015612eaa578181015183820152602001612e92565b838111156110ce5750506000910152565b60008151808452612ed3816020860160208601612e8f565b601f01601f19169290920160200192915050565b6020815260006115916020830184612ebb565b600060208284031215612f0c57600080fd5b5035919050565b80356001600160a01b0381168114612f2a57600080fd5b919050565b60008060408385031215612f4257600080fd5b612f4b83612f13565b946020939093013593505050565b600080600060608486031215612f6e57600080fd5b612f7784612f13565b9250612f8560208501612f13565b9150604084013590509250925092565b600060208284031215612fa757600080fd5b61159182612f13565b7f4e487b7100000000000000000000000000000000000000000000000000000000600052604160045260246000fd5b604051601f8201601f1916810167ffffffffffffffff8111828210171561300857613008612fb0565b604052919050565b600067ffffffffffffffff82111561302a5761302a612fb0565b5060051b60200190565b600082601f83011261304557600080fd5b813567ffffffffffffffff81111561305f5761305f612fb0565b6130726020601f19601f84011601612fdf565b81815284602083860101111561308757600080fd5b816020850160208301376000918101602001919091529392505050565b600082601f8301126130b557600080fd5b813560206130ca6130c583613010565b612fdf565b82815260059290921b840181019181810190868411156130e957600080fd5b8286015b8481101561312957803567ffffffffffffffff81111561310d5760008081fd5b61311b8986838b0101613034565b8452509183019183016130ed565b509695505050505050565b6000806040838503121561314757600080fd5b823567ffffffffffffffff8082111561315f57600080fd5b818501915085601f83011261317357600080fd5b813560206131836130c583613010565b82815260059290921b840181019181810190898411156131a257600080fd5b948201945b838610156131c7576131b886612f13565b825294820194908201906131a7565b965050860135925050808211156131dd57600080fd5b506131ea858286016130a4565b9150509250929050565b6000806020838503121561320757600080fd5b823567ffffffffffffffff8082111561321f57600080fd5b818501915085601f83011261323357600080fd5b81358181111561324257600080fd5b86602082850101111561325457600080fd5b60209290920196919550909350505050565b6000806040838503121561327957600080fd5b61328283612f13565b91506020830135801515811461329757600080fd5b809150509250929050565b600080600080608085870312156132b857600080fd5b6132c185612f13565b93506132cf60208601612f13565b925060408501359150606085013567ffffffffffffffff8111156132f257600080fd5b6132fe87828801613034565b91505092959194509250565b6000806040838503121561331d57600080fd5b823567ffffffffffffffff8082111561333557600080fd5b818501915085601f83011261334957600080fd5b813560206133596130c583613010565b82815260059290921b8401810191818101908984111561337857600080fd5b948201945b838610156131c75785358252948201949082019061337d565b600080604083850312156133a957600080fd5b6133b283612f13565b91506133c060208401612f13565b90509250929050565b6020808252825182820181905260009190848201906040850190845b8181101561340a5783516001600160a01b0316835292840192918401916001016133e5565b50909695505050505050565b600181811c9082168061342a57607f821691505b60208210811415613464577f4e487b7100000000000000000000000000000000000000000000000000000000600052602260045260246000fd5b50919050565b7f4e487b7100000000000000000000000000000000000000000000000000000000600052601160045260246000fd5b60007fffffffffffffffffffffffffffffffffffffffffffffffffffffffffffffffff8214156134cb576134cb61346a565b5060010190565b6020808252825482820181905260008481528281209092916040850190845b8181101561340a5783546001600160a01b0316835260019384019392850192016134f1565b7f4e487b7100000000000000000000000000000000000000000000000000000000600052603260045260246000fd5b60208152816020820152818360408301376000818301604090810191909152601f909201601f19160101919050565b6020808252825182820181905260009190848201906040850190845b8181101561340a57835183529284019291840191600101613590565b600082198211156135bf576135bf61346a565b500190565b6000828210156135d6576135d661346a565b500390565b600083516135ed818460208801612e8f565b7f3a200000000000000000000000000000000000000000000000000000000000009083019081528351613627816002840160208801612e8f565b01600201949350505050565b60008351613645818460208801612e8f565b835190830190613659818360208801612e8f565b01949350505050565b6000817fffffffffffffffffffffffffffffffffffffffffffffffffffffffffffffffff048311821515161561369a5761369a61346a565b500290565b6000816136ae576136ae61346a565b507fffffffffffffffffffffffffffffffffffffffffffffffffffffffffffffffff0190565b7f4e487b7100000000000000000000000000000000000000000000000000000000600052602160045260246000fd5b60006001600160a01b038087168352808616602084015250836040830152608060608301526137356080830184612ebb565b9695505050505050565b60006020828403121561375157600080fd5b815161159181612e44565b7f4e487b7100000000000000000000000000000000000000000000000000000000600052601260045260246000fd5b60008261379a5761379a61375c565b500490565b6000826137ae576137ae61375c565b50069056fea2646970667358221220fd0d84950902a6ab122bcaaa0494ade2f3aa99481988e4cb3b06ed46e7064ae164736f6c634300080b0033",
  "linkReferences": {},
  "deployedLinkReferences": {}
}