{
  "_format": "hh-sol-artifact-1",
  "contractName": "NFC",
  "sourceName": "contracts/NFC.sol",
  "abi": [
    {
      "anonymous": false,
      "inputs": [
        {
          "indexed": true,
          "internalType": "uint256",
          "name": "id",
          "type": "uint256"
        },
        {
          "indexed": false,
          "internalType": "address[]",
          "name": "accounts",
          "type": "address[]"
        }
      ],
      "name": "AccountsAdded",
      "type": "event"
    },
    {
      "anonymous": false,
      "inputs": [
        {
          "indexed": true,
          "internalType": "address",
          "name": "owner",
          "type": "address"
        },
        {
          "indexed": true,
          "internalType": "address",
          "name": "approved",
          "type": "address"
        },
        {
          "indexed": true,
          "internalType": "uint256",
          "name": "tokenId",
          "type": "uint256"
        }
      ],
      "name": "Approval",
      "type": "event"
    },
    {
      "anonymous": false,
      "inputs": [
        {
          "indexed": true,
          "internalType": "address",
          "name": "owner",
          "type": "address"
        },
        {
          "indexed": true,
          "internalType": "address",
          "name": "operator",
          "type": "address"
        },
        {
          "indexed": false,
          "internalType": "bool",
          "name": "approved",
          "type": "bool"
        }
      ],
      "name": "ApprovalForAll",
      "type": "event"
    },
    {
      "anonymous": false,
      "inputs": [
        {
          "indexed": false,
          "internalType": "string",
          "name": "uri",
          "type": "string"
        }
      ],
      "name": "BaseURIUpdated",
      "type": "event"
    },
    {
      "anonymous": false,
      "inputs": [
        {
          "indexed": true,
          "internalType": "uint256",
          "name": "id",
          "type": "uint256"
        },
        {
          "indexed": false,
          "internalType": "string",
          "name": "uri",
          "type": "string"
        }
      ],
      "name": "CustomURIUpdated",
      "type": "event"
    },
    {
      "anonymous": false,
      "inputs": [
        {
          "indexed": true,
          "internalType": "uint256",
          "name": "id",
          "type": "uint256"
        },
        {
          "indexed": false,
          "internalType": "address[]",
          "name": "accounts",
          "type": "address[]"
        }
      ],
      "name": "NFCCreated",
      "type": "event"
    },
    {
      "anonymous": false,
      "inputs": [
        {
          "indexed": true,
          "internalType": "uint256",
          "name": "id",
          "type": "uint256"
        },
        {
          "indexed": false,
          "internalType": "uint256[]",
          "name": "ids",
          "type": "uint256[]"
        }
      ],
      "name": "NFCMerged",
      "type": "event"
    },
    {
      "anonymous": false,
      "inputs": [
        {
          "indexed": true,
          "internalType": "address",
          "name": "previousOwner",
          "type": "address"
        },
        {
          "indexed": true,
          "internalType": "address",
          "name": "newOwner",
          "type": "address"
        }
      ],
      "name": "OwnershipTransferred",
      "type": "event"
    },
    {
      "anonymous": false,
      "inputs": [
        {
          "indexed": true,
          "internalType": "address",
          "name": "from",
          "type": "address"
        },
        {
          "indexed": true,
          "internalType": "address",
          "name": "to",
          "type": "address"
        },
        {
          "indexed": true,
          "internalType": "uint256",
          "name": "tokenId",
          "type": "uint256"
        }
      ],
      "name": "Transfer",
      "type": "event"
    },
    {
      "inputs": [
        {
          "internalType": "address[]",
          "name": "accounts",
          "type": "address[]"
        },
        {
          "internalType": "bytes[]",
          "name": "signatures",
          "type": "bytes[]"
        }
      ],
      "name": "addAccounts",
      "outputs": [],
      "stateMutability": "nonpayable",
      "type": "function"
    },
    {
      "inputs": [
        {
          "internalType": "address",
          "name": "to",
          "type": "address"
        },
        {
          "internalType": "uint256",
          "name": "tokenId",
          "type": "uint256"
        }
      ],
      "name": "approve",
      "outputs": [],
      "stateMutability": "nonpayable",
      "type": "function"
    },
    {
      "inputs": [
        {
          "internalType": "address",
          "name": "owner",
          "type": "address"
        }
      ],
      "name": "balanceOf",
      "outputs": [
        {
          "internalType": "uint256",
          "name": "",
          "type": "uint256"
        }
      ],
      "stateMutability": "view",
      "type": "function"
    },
    {
      "inputs": [],
      "name": "counter",
      "outputs": [
        {
          "internalType": "uint256",
          "name": "",
          "type": "uint256"
        }
      ],
      "stateMutability": "view",
      "type": "function"
    },
    {
      "inputs": [
        {
          "internalType": "uint256",
          "name": "id",
          "type": "uint256"
        }
      ],
      "name": "getAddresses",
      "outputs": [
        {
          "internalType": "address[]",
          "name": "",
          "type": "address[]"
        }
      ],
      "stateMutability": "view",
      "type": "function"
    },
    {
      "inputs": [
        {
          "internalType": "uint256",
          "name": "tokenId",
          "type": "uint256"
        }
      ],
      "name": "getApproved",
      "outputs": [
        {
          "internalType": "address",
          "name": "",
          "type": "address"
        }
      ],
      "stateMutability": "view",
      "type": "function"
    },
    {
      "inputs": [
        {
          "internalType": "address",
          "name": "account",
          "type": "address"
        }
      ],
      "name": "getNFCId",
      "outputs": [
        {
          "internalType": "uint256",
          "name": "",
          "type": "uint256"
        }
      ],
      "stateMutability": "view",
      "type": "function"
    },
    {
      "inputs": [],
      "name": "initialize",
      "outputs": [],
      "stateMutability": "nonpayable",
      "type": "function"
    },
    {
      "inputs": [
        {
          "internalType": "address",
          "name": "owner",
          "type": "address"
        },
        {
          "internalType": "address",
          "name": "operator",
          "type": "address"
        }
      ],
      "name": "isApprovedForAll",
      "outputs": [
        {
          "internalType": "bool",
          "name": "",
          "type": "bool"
        }
      ],
      "stateMutability": "view",
      "type": "function"
    },
    {
      "inputs": [
        {
          "internalType": "uint256[]",
          "name": "ids",
          "type": "uint256[]"
        },
        {
          "internalType": "bytes[]",
          "name": "signatures",
          "type": "bytes[]"
        }
      ],
      "name": "merge",
      "outputs": [],
      "stateMutability": "nonpayable",
      "type": "function"
    },
    {
      "inputs": [
        {
          "internalType": "address",
          "name": "account",
          "type": "address"
        }
      ],
      "name": "mint",
      "outputs": [
        {
          "internalType": "uint256",
          "name": "",
          "type": "uint256"
        }
      ],
      "stateMutability": "nonpayable",
      "type": "function"
    },
    {
      "inputs": [],
      "name": "name",
      "outputs": [
        {
          "internalType": "string",
          "name": "",
          "type": "string"
        }
      ],
      "stateMutability": "view",
      "type": "function"
    },
    {
      "inputs": [],
      "name": "owner",
      "outputs": [
        {
          "internalType": "address",
          "name": "",
          "type": "address"
        }
      ],
      "stateMutability": "view",
      "type": "function"
    },
    {
      "inputs": [
        {
          "internalType": "uint256",
          "name": "tokenId",
          "type": "uint256"
        }
      ],
      "name": "ownerOf",
      "outputs": [
        {
          "internalType": "address",
          "name": "",
          "type": "address"
        }
      ],
      "stateMutability": "view",
      "type": "function"
    },
    {
      "inputs": [],
      "name": "renounceOwnership",
      "outputs": [],
      "stateMutability": "nonpayable",
      "type": "function"
    },
    {
      "inputs": [
        {
          "internalType": "address",
          "name": "from",
          "type": "address"
        },
        {
          "internalType": "address",
          "name": "to",
          "type": "address"
        },
        {
          "internalType": "uint256",
          "name": "tokenId",
          "type": "uint256"
        }
      ],
      "name": "safeTransferFrom",
      "outputs": [],
      "stateMutability": "nonpayable",
      "type": "function"
    },
    {
      "inputs": [
        {
          "internalType": "address",
          "name": "from",
          "type": "address"
        },
        {
          "internalType": "address",
          "name": "to",
          "type": "address"
        },
        {
          "internalType": "uint256",
          "name": "tokenId",
          "type": "uint256"
        },
        {
          "internalType": "bytes",
          "name": "_data",
          "type": "bytes"
        }
      ],
      "name": "safeTransferFrom",
      "outputs": [],
      "stateMutability": "nonpayable",
      "type": "function"
    },
    {
      "inputs": [
        {
          "internalType": "address",
          "name": "operator",
          "type": "address"
        },
        {
          "internalType": "bool",
          "name": "approved",
          "type": "bool"
        }
      ],
      "name": "setApprovalForAll",
      "outputs": [],
      "stateMutability": "nonpayable",
      "type": "function"
    },
    {
      "inputs": [
        {
          "internalType": "string",
          "name": "baseURI",
          "type": "string"
        }
      ],
      "name": "setBaseURI",
      "outputs": [],
      "stateMutability": "nonpayable",
      "type": "function"
    },
    {
      "inputs": [
        {
          "internalType": "string",
          "name": "_customUri",
          "type": "string"
        }
      ],
      "name": "setCustomURI",
      "outputs": [],
      "stateMutability": "nonpayable",
      "type": "function"
    },
    {
      "inputs": [
        {
          "internalType": "bytes4",
          "name": "interfaceId",
          "type": "bytes4"
        }
      ],
      "name": "supportsInterface",
      "outputs": [
        {
          "internalType": "bool",
          "name": "",
          "type": "bool"
        }
      ],
      "stateMutability": "view",
      "type": "function"
    },
    {
      "inputs": [],
      "name": "symbol",
      "outputs": [
        {
          "internalType": "string",
          "name": "",
          "type": "string"
        }
      ],
      "stateMutability": "view",
      "type": "function"
    },
    {
      "inputs": [
        {
          "internalType": "uint256",
          "name": "tokenId",
          "type": "uint256"
        }
      ],
      "name": "tokenURI",
      "outputs": [
        {
          "internalType": "string",
          "name": "",
          "type": "string"
        }
      ],
      "stateMutability": "view",
      "type": "function"
    },
    {
      "inputs": [
        {
          "internalType": "address",
          "name": "from",
          "type": "address"
        },
        {
          "internalType": "address",
          "name": "to",
          "type": "address"
        },
        {
          "internalType": "uint256",
          "name": "tokenId",
          "type": "uint256"
        }
      ],
      "name": "transferFrom",
      "outputs": [],
      "stateMutability": "nonpayable",
      "type": "function"
    },
    {
      "inputs": [
        {
          "internalType": "address",
          "name": "newOwner",
          "type": "address"
        }
      ],
      "name": "transferOwnership",
      "outputs": [],
      "stateMutability": "nonpayable",
      "type": "function"
    }
  ],
  "bytecode": "0x608060405234801561001057600080fd5b506137ca806100206000396000f3fe608060405234801561001057600080fd5b50600436106101a35760003560e01c806370a08231116100ee578063b88d4fde11610097578063c87b56dd11610071578063c87b56dd14610349578063e985e9c51461035c578063ec4788cd14610398578063f2fde38b146103b857600080fd5b8063b88d4fde14610310578063c22f123314610323578063c870c0121461033657600080fd5b80638da5cb5b116100c85780638da5cb5b146102e457806395d89b41146102f5578063a22cb465146102fd57600080fd5b806370a08231146102c1578063715018a6146102d45780638129fc1c146102dc57600080fd5b8063376e4a801161015057806361bc221a1161012a57806361bc221a146102925780636352211e1461029b5780636a627842146102ae57600080fd5b8063376e4a801461025957806342842e0e1461026c57806355f804b31461027f57600080fd5b8063095ea7b311610181578063095ea7b31461021057806323b872dd146102255780632d96f70d1461023857600080fd5b806301ffc9a7146101a857806306fdde03146101d0578063081812fc146101e5575b600080fd5b6101bb6101b6366004612e53565b6103cb565b60405190151581526020015b60405180910390f35b6101d86104b0565b6040516101c79190612ec8565b6101f86101f3366004612edb565b610542565b6040516001600160a01b0390911681526020016101c7565b61022361021e366004612f10565b6105ed565b005b610223610233366004612f3a565b61071f565b61024b610246366004612f76565b6107a6565b6040519081526020016101c7565b610223610267366004613115565b61080c565b61022361027a366004612f3a565b610b16565b61022361028d3660046131d5565b610b31565b61024b60cb5481565b6101f86102a9366004612edb565b610bd5565b61024b6102bc366004612f76565b610c60565b61024b6102cf366004612f76565b610d8d565b610223610e27565b610223610e8d565b6097546001600160a01b03166101f8565b6101d8611010565b61022361030b366004613247565b61101f565b61022361031e366004613283565b61102e565b6102236103313660046132eb565b6110bc565b6102236103443660046131d5565b611446565b6101d8610357366004612edb565b6114a3565b6101bb61036a366004613377565b6001600160a01b039182166000908152606a6020908152604080832093909416825291909152205460ff1690565b6103ab6103a6366004612edb565b611579565b6040516101c791906133aa565b6102236103c6366004612f76565b6115e5565b60007fffffffff0000000000000000000000000000000000000000000000000000000082167f80ac58cd00000000000000000000000000000000000000000000000000000000148061045e57507fffffffff0000000000000000000000000000000000000000000000000000000082167f5b5e139f00000000000000000000000000000000000000000000000000000000145b806104aa57507f01ffc9a7000000000000000000000000000000000000000000000000000000007fffffffff000000000000000000000000000000000000000000000000000000008316145b92915050565b6060606580546104bf906133f7565b80601f01602080910402602001604051908101604052809291908181526020018280546104eb906133f7565b80156105385780601f1061050d57610100808354040283529160200191610538565b820191906000526020600020905b81548152906001019060200180831161051b57829003601f168201915b5050505050905090565b6000818152606760205260408120546001600160a01b03166105d15760405162461bcd60e51b815260206004820152602c60248201527f4552433732313a20617070726f76656420717565727920666f72206e6f6e657860448201527f697374656e7420746f6b656e000000000000000000000000000000000000000060648201526084015b60405180910390fd5b506000908152606960205260409020546001600160a01b031690565b60006105f882610bd5565b9050806001600160a01b0316836001600160a01b031614156106825760405162461bcd60e51b815260206004820152602160248201527f4552433732313a20617070726f76616c20746f2063757272656e74206f776e6560448201527f720000000000000000000000000000000000000000000000000000000000000060648201526084016105c8565b336001600160a01b038216148061069e575061069e813361036a565b6107105760405162461bcd60e51b815260206004820152603860248201527f4552433732313a20617070726f76652063616c6c6572206973206e6f74206f7760448201527f6e6572206e6f7220617070726f76656420666f7220616c6c000000000000000060648201526084016105c8565b61071a83836116c4565b505050565b610729338261174a565b61079b5760405162461bcd60e51b815260206004820152603160248201527f4552433732313a207472616e736665722063616c6c6572206973206e6f74206f60448201527f776e6572206e6f7220617070726f76656400000000000000000000000000000060648201526084016105c8565b61071a838383611852565b6001600160a01b038116600090815260ca6020526040812054806104aa5760405162461bcd60e51b815260206004820152600d60248201527f4e46435f4e4f545f464f554e440000000000000000000000000000000000000060448201526064016105c8565b805182511461085d5760405162461bcd60e51b815260206004820152601560248201527f41525241595f4c454e4754485f4d49534d41544348000000000000000000000060448201526064016105c8565b6000610868336107a6565b600081815260c9602052604081209192505b8451811015610ad75760008582815181106108975761089761344b565b6020026020010151905060ca6000826001600160a01b03166001600160a01b03168152602001908152602001600020546000146109096040518060400160405280600e81526020017f414c52454144595f494e5f4e464300000000000000000000000000000000000081525083611a42565b906109275760405162461bcd60e51b81526004016105c89190612ec8565b5060408051602081018690527fffffffffffffffffffffffffffffffffffffffff0000000000000000000000003060601b16918101919091524660548201526000906109d1906074015b60408051601f1981840301815282825280516020918201207f19457468657265756d205369676e6564204d6573736167653a0a33320000000084830152603c8085019190915282518085039091018152605c909301909152815191012090565b9050816001600160a01b0316610a098785815181106109f2576109f261344b565b602002602001015183611a8190919063ffffffff16565b6001600160a01b031614610a526040518060400160405280601181526020017f494e56414c49445f5349474e415455524500000000000000000000000000000081525084611a42565b90610a705760405162461bcd60e51b81526004016105c89190612ec8565b50506001600160a01b0316600081815260ca602090815260408220869055845460018101865585835291200180547fffffffffffffffffffffffff000000000000000000000000000000000000000016909117905580610acf816134a9565b91505061087a565b50817f177778edaa8393afd930ca7aad7ce9ab4ffe4019e049e3fc87abe61c0d2c906985604051610b0891906133aa565b60405180910390a250505050565b61071a8383836040518060200160405280600081525061102e565b6097546001600160a01b03163314610b8b5760405162461bcd60e51b815260206004820181905260248201527f4f776e61626c653a2063616c6c6572206973206e6f7420746865206f776e657260448201526064016105c8565b610b9760cc8383612ca2565b507f6741b2fc379fad678116fe3d4d4b9a1a184ab53ba36b86ad0fa66340b1ab41ad8282604051610bc99291906134e2565b60405180910390a15050565b6000818152606760205260408120546001600160a01b0316806104aa5760405162461bcd60e51b815260206004820152602960248201527f4552433732313a206f776e657220717565727920666f72206e6f6e657869737460448201527f656e7420746f6b656e000000000000000000000000000000000000000000000060648201526084016105c8565b6001600160a01b038116600090815260ca602052604081205415610cc65760405162461bcd60e51b815260206004820152601260248201527f4e46435f414c52454144595f455849535453000000000000000000000000000060448201526064016105c8565b60cb805460009182610cd7836134a9565b90915550600081815260c9602090815260408083206001600160a01b03881680855260ca845291842085905580546001810182558185529290932090910180547fffffffffffffffffffffffff0000000000000000000000000000000000000000169091179055909150610d4b8483611aa5565b817fe2813d28765f4525cf95f9d415b2dcad9740fc89cc29475be1e924b744a2ba1882600001604051610d7e9190613511565b60405180910390a25092915050565b60006001600160a01b038216610e0b5760405162461bcd60e51b815260206004820152602a60248201527f4552433732313a2062616c616e636520717565727920666f7220746865207a6560448201527f726f20616464726573730000000000000000000000000000000000000000000060648201526084016105c8565b506001600160a01b031660009081526068602052604090205490565b6097546001600160a01b03163314610e815760405162461bcd60e51b815260206004820181905260248201527f4f776e61626c653a2063616c6c6572206973206e6f7420746865206f776e657260448201526064016105c8565b610e8b6000611c0b565b565b600054610100900460ff16610ea85760005460ff1615610eac565b303b155b610f1e5760405162461bcd60e51b815260206004820152602e60248201527f496e697469616c697a61626c653a20636f6e747261637420697320616c72656160448201527f647920696e697469616c697a656400000000000000000000000000000000000060648201526084016105c8565b600054610100900460ff16158015610f5d57600080547fffffffffffffffffffffffffffffffffffffffffffffffffffffffffffff0000166101011790555b610f65611c75565b610fd96040518060400160405280601381526020017f4e6f6e2046756e6769626c6520437265646974000000000000000000000000008152506040518060400160405280600381526020017f4e46430000000000000000000000000000000000000000000000000000000000815250611d02565b600160cb55801561100d57600080547fffffffffffffffffffffffffffffffffffffffffffffffffffffffffffff00ff1690555b50565b6060606680546104bf906133f7565b61102a338383611d99565b5050565b611038338361174a565b6110aa5760405162461bcd60e51b815260206004820152603160248201527f4552433732313a207472616e736665722063616c6c6572206973206e6f74206f60448201527f776e6572206e6f7220617070726f76656400000000000000000000000000000060648201526084016105c8565b6110b684848484611e86565b50505050565b805182511461110d5760405162461bcd60e51b815260206004820152601560248201527f41525241595f4c454e4754485f4d49534d41544348000000000000000000000060448201526064016105c8565b6000611118336107a6565b600081815260c9602052604081209192505b845181101561143f5760008582815181106111475761114761344b565b6020026020010151905060006111c48684815181106111685761116861344b565b60200260200101516111be8730466040516020016109719392919092835260609190911b7fffffffffffffffffffffffffffffffffffffffff000000000000000000000000166020830152603482015260540190565b90611a81565b90508160ca6000836001600160a01b03166001600160a01b03168152602001908152602001600020541461122d6040518060400160405280601181526020017f5349474e45525f4e4f545f494e5f4e464300000000000000000000000000000081525084611f0f565b9061124b5760405162461bcd60e51b81526004016105c89190612ec8565b50600082815260c960209081526040808320805482518185028101850190935280835291929091908301828280156112ac57602002820191906000526020600020905b81546001600160a01b0316815260019091019060200180831161128e575b5050505050905060005b815181101561138157856000018282815181106112d5576112d561344b565b6020908102919091018101518254600181018455600093845291832090910180547fffffffffffffffffffffffff0000000000000000000000000000000000000000166001600160a01b039092169190911790558251889160ca918590859081106113425761134261344b565b60200260200101516001600160a01b03166001600160a01b03168152602001908152602001600020819055508080611379906134a9565b9150506112b6565b5060c960008986815181106113985761139861344b565b60200260200101518152602001908152602001600020600080820160006113bf9190612d44565b6113cd600183016000612d62565b50506113f18885815181106113e4576113e461344b565b6020026020010151611f1b565b857fae3177abcfcda71ffcbe1dae10ff4b6d537cddc3a47ec67f692ed3b65087599e896040516114219190613555565b60405180910390a25050508080611437906134a9565b91505061112a565b5050505050565b6000611451336107a6565b600081815260c960205260409020909150611470600182018585612ca2565b50817fc085294540bb5beefb88a6c72aaba35edae5cf4220db1ea4edc9720fbe8de5348585604051610b089291906134e2565b6060816114be57505060408051602081019091526000815290565b600082815260c96020526040812060010180546114da906133f7565b80601f0160208091040260200160405190810160405280929190818152602001828054611506906133f7565b80156115535780601f1061152857610100808354040283529160200191611553565b820191906000526020600020905b81548152906001019060200180831161153657829003601f168201915b5050505050905080516000146115695792915050565b61157283611fda565b9392505050565b600081815260c960209081526040918290208054835181840281018401909452808452606093928301828280156115d957602002820191906000526020600020905b81546001600160a01b031681526001909101906020018083116115bb575b50505050509050919050565b6097546001600160a01b0316331461163f5760405162461bcd60e51b815260206004820181905260248201527f4f776e61626c653a2063616c6c6572206973206e6f7420746865206f776e657260448201526064016105c8565b6001600160a01b0381166116bb5760405162461bcd60e51b815260206004820152602660248201527f4f776e61626c653a206e6577206f776e657220697320746865207a65726f206160448201527f646472657373000000000000000000000000000000000000000000000000000060648201526084016105c8565b61100d81611c0b565b600081815260696020526040902080547fffffffffffffffffffffffff0000000000000000000000000000000000000000166001600160a01b038416908117909155819061171182610bd5565b6001600160a01b03167f8c5be1e5ebec7d5bd14f71427d1e84f3dd0314c0f7b2291e5b200ac8c7c3b92560405160405180910390a45050565b6000818152606760205260408120546001600160a01b03166117d45760405162461bcd60e51b815260206004820152602c60248201527f4552433732313a206f70657261746f7220717565727920666f72206e6f6e657860448201527f697374656e7420746f6b656e000000000000000000000000000000000000000060648201526084016105c8565b60006117df83610bd5565b9050806001600160a01b0316846001600160a01b0316148061181a5750836001600160a01b031661180f84610542565b6001600160a01b0316145b8061184a57506001600160a01b038082166000908152606a602090815260408083209388168352929052205460ff165b949350505050565b826001600160a01b031661186582610bd5565b6001600160a01b0316146118e15760405162461bcd60e51b815260206004820152602960248201527f4552433732313a207472616e73666572206f6620746f6b656e2074686174206960448201527f73206e6f74206f776e000000000000000000000000000000000000000000000060648201526084016105c8565b6001600160a01b03821661195c5760405162461bcd60e51b8152602060048201526024808201527f4552433732313a207472616e7366657220746f20746865207a65726f2061646460448201527f726573730000000000000000000000000000000000000000000000000000000060648201526084016105c8565b6119678383836120c2565b6119726000826116c4565b6001600160a01b038316600090815260686020526040812080546001929061199b90849061358d565b90915550506001600160a01b03821660009081526068602052604081208054600192906119c99084906135a4565b909155505060008181526067602052604080822080547fffffffffffffffffffffffff0000000000000000000000000000000000000000166001600160a01b0386811691821790925591518493918716917fddf252ad1be2c89b69c2b068fc378daa952ba7f163c4a11628f55a4df523b3ef91a4505050565b606082611a596001600160a01b038416601461212b565b604051602001611a6a9291906135bc565b604051602081830303815290604052905092915050565b6000806000611a908585612354565b91509150611a9d816123c4565b509392505050565b6001600160a01b038216611afb5760405162461bcd60e51b815260206004820181905260248201527f4552433732313a206d696e7420746f20746865207a65726f206164647265737360448201526064016105c8565b6000818152606760205260409020546001600160a01b031615611b605760405162461bcd60e51b815260206004820152601c60248201527f4552433732313a20746f6b656e20616c7265616479206d696e7465640000000060448201526064016105c8565b611b6c600083836120c2565b6001600160a01b0382166000908152606860205260408120805460019290611b959084906135a4565b909155505060008181526067602052604080822080547fffffffffffffffffffffffff0000000000000000000000000000000000000000166001600160a01b03861690811790915590518392907fddf252ad1be2c89b69c2b068fc378daa952ba7f163c4a11628f55a4df523b3ef908290a45050565b609780546001600160a01b038381167fffffffffffffffffffffffff0000000000000000000000000000000000000000831681179093556040519116919082907f8be0079c531659141344cd1fd0a4f28419497f9722a3daafe3b4186f6b6457e090600090a35050565b600054610100900460ff16611cf25760405162461bcd60e51b815260206004820152602b60248201527f496e697469616c697a61626c653a20636f6e7472616374206973206e6f74206960448201527f6e697469616c697a696e6700000000000000000000000000000000000000000060648201526084016105c8565b611cfa6125b5565b610e8b612632565b600054610100900460ff16611d7f5760405162461bcd60e51b815260206004820152602b60248201527f496e697469616c697a61626c653a20636f6e7472616374206973206e6f74206960448201527f6e697469616c697a696e6700000000000000000000000000000000000000000060648201526084016105c8565b611d876125b5565b611d8f6125b5565b61102a82826126b8565b816001600160a01b0316836001600160a01b03161415611dfb5760405162461bcd60e51b815260206004820152601960248201527f4552433732313a20617070726f766520746f2063616c6c65720000000000000060448201526064016105c8565b6001600160a01b038381166000818152606a602090815260408083209487168084529482529182902080547fffffffffffffffffffffffffffffffffffffffffffffffffffffffffffffff001686151590811790915591519182527f17307eab39ab6107e8899845ad3d59bd9653f200f220920489ca2b5937696c31910160405180910390a3505050565b611e91848484611852565b611e9d8484848461275c565b6110b65760405162461bcd60e51b815260206004820152603260248201527f4552433732313a207472616e7366657220746f206e6f6e20455243373231526560448201527f63656976657220696d706c656d656e746572000000000000000000000000000060648201526084016105c8565b606082611a59836128fa565b6000611f2682610bd5565b9050611f34816000846120c2565b611f3f6000836116c4565b6001600160a01b0381166000908152606860205260408120805460019290611f6890849061358d565b909155505060008281526067602052604080822080547fffffffffffffffffffffffff0000000000000000000000000000000000000000169055518391906001600160a01b038416907fddf252ad1be2c89b69c2b068fc378daa952ba7f163c4a11628f55a4df523b3ef908390a45050565b6000818152606760205260409020546060906001600160a01b03166120675760405162461bcd60e51b815260206004820152602f60248201527f4552433732314d657461646174613a2055524920717565727920666f72206e6f60448201527f6e6578697374656e7420746f6b656e000000000000000000000000000000000060648201526084016105c8565b6000612071612a2c565b905060008151116120915760405180602001604052806000815250611572565b8061209b84612a3b565b6040516020016120ac929190613614565b6040516020818303038152906040529392505050565b6001600160a01b03831615806120df57506001600160a01b038216155b61071a5760405162461bcd60e51b815260206004820152601460248201527f4e46435f4e4f545f5452414e5346455241424c4500000000000000000000000060448201526064016105c8565b6060600061213a836002613643565b6121459060026135a4565b67ffffffffffffffff81111561215d5761215d612f91565b6040519080825280601f01601f191660200182016040528015612187576020820181803683370190505b5090507f3000000000000000000000000000000000000000000000000000000000000000816000815181106121be576121be61344b565b60200101907effffffffffffffffffffffffffffffffffffffffffffffffffffffffffffff1916908160001a9053507f7800000000000000000000000000000000000000000000000000000000000000816001815181106122215761222161344b565b60200101907effffffffffffffffffffffffffffffffffffffffffffffffffffffffffffff1916908160001a905350600061225d846002613643565b6122689060016135a4565b90505b6001811115612305577f303132333435363738396162636465660000000000000000000000000000000085600f16601081106122a9576122a961344b565b1a60f81b8282815181106122bf576122bf61344b565b60200101907effffffffffffffffffffffffffffffffffffffffffffffffffffffffffffff1916908160001a90535060049490941c936122fe81613680565b905061226b565b5083156115725760405162461bcd60e51b815260206004820181905260248201527f537472696e67733a20686578206c656e67746820696e73756666696369656e7460448201526064016105c8565b60008082516041141561238b5760208301516040840151606085015160001a61237f87828585612b6d565b945094505050506123bd565b8251604014156123b557602083015160408401516123aa868383612c5a565b9350935050506123bd565b506000905060025b9250929050565b60008160048111156123d8576123d86136b5565b14156123e15750565b60018160048111156123f5576123f56136b5565b14156124435760405162461bcd60e51b815260206004820152601860248201527f45434453413a20696e76616c6964207369676e6174757265000000000000000060448201526064016105c8565b6002816004811115612457576124576136b5565b14156124a55760405162461bcd60e51b815260206004820152601f60248201527f45434453413a20696e76616c6964207369676e6174757265206c656e6774680060448201526064016105c8565b60038160048111156124b9576124b96136b5565b141561252d5760405162461bcd60e51b815260206004820152602260248201527f45434453413a20696e76616c6964207369676e6174757265202773272076616c60448201527f756500000000000000000000000000000000000000000000000000000000000060648201526084016105c8565b6004816004811115612541576125416136b5565b141561100d5760405162461bcd60e51b815260206004820152602260248201527f45434453413a20696e76616c6964207369676e6174757265202776272076616c60448201527f756500000000000000000000000000000000000000000000000000000000000060648201526084016105c8565b600054610100900460ff16610e8b5760405162461bcd60e51b815260206004820152602b60248201527f496e697469616c697a61626c653a20636f6e7472616374206973206e6f74206960448201527f6e697469616c697a696e6700000000000000000000000000000000000000000060648201526084016105c8565b600054610100900460ff166126af5760405162461bcd60e51b815260206004820152602b60248201527f496e697469616c697a61626c653a20636f6e7472616374206973206e6f74206960448201527f6e697469616c697a696e6700000000000000000000000000000000000000000060648201526084016105c8565b610e8b33611c0b565b600054610100900460ff166127355760405162461bcd60e51b815260206004820152602b60248201527f496e697469616c697a61626c653a20636f6e7472616374206973206e6f74206960448201527f6e697469616c697a696e6700000000000000000000000000000000000000000060648201526084016105c8565b8151612748906065906020850190612d9c565b50805161071a906066906020840190612d9c565b60006001600160a01b0384163b156128ef576040517f150b7a020000000000000000000000000000000000000000000000000000000081526001600160a01b0385169063150b7a02906127b99033908990889088906004016136e4565b6020604051808303816000875af19250505080156127f4575060408051601f3d908101601f191682019092526127f191810190613720565b60015b6128a4573d808015612822576040519150601f19603f3d011682016040523d82523d6000602084013e612827565b606091505b50805161289c5760405162461bcd60e51b815260206004820152603260248201527f4552433732313a207472616e7366657220746f206e6f6e20455243373231526560448201527f63656976657220696d706c656d656e746572000000000000000000000000000060648201526084016105c8565b805181602001fd5b7fffffffff00000000000000000000000000000000000000000000000000000000167f150b7a020000000000000000000000000000000000000000000000000000000014905061184a565b506001949350505050565b60608161293a57505060408051808201909152600181527f3000000000000000000000000000000000000000000000000000000000000000602082015290565b8160005b8115612964578061294e816134a9565b915061295d9050600a8361376c565b915061293e565b60008167ffffffffffffffff81111561297f5761297f612f91565b6040519080825280601f01601f1916602001820160405280156129a9576020820181803683370190505b5090505b841561184a576129be60018361358d565b91506129cb600a86613780565b6129d69060306135a4565b60f81b8183815181106129eb576129eb61344b565b60200101907effffffffffffffffffffffffffffffffffffffffffffffffffffffffffffff1916908160001a905350612a25600a8661376c565b94506129ad565b606060cc80546104bf906133f7565b606081612a7b57505060408051808201909152600181527f3000000000000000000000000000000000000000000000000000000000000000602082015290565b8160005b8115612aa55780612a8f816134a9565b9150612a9e9050600a8361376c565b9150612a7f565b60008167ffffffffffffffff811115612ac057612ac0612f91565b6040519080825280601f01601f191660200182016040528015612aea576020820181803683370190505b5090505b841561184a57612aff60018361358d565b9150612b0c600a86613780565b612b179060306135a4565b60f81b818381518110612b2c57612b2c61344b565b60200101907effffffffffffffffffffffffffffffffffffffffffffffffffffffffffffff1916908160001a905350612b66600a8661376c565b9450612aee565b6000807f7fffffffffffffffffffffffffffffff5d576e7357a4501ddfe92f46681b20a0831115612ba45750600090506003612c51565b8460ff16601b14158015612bbc57508460ff16601c14155b15612bcd5750600090506004612c51565b6040805160008082526020820180845289905260ff881692820192909252606081018690526080810185905260019060a0016020604051602081039080840390855afa158015612c21573d6000803e3d6000fd5b5050604051601f1901519150506001600160a01b038116612c4a57600060019250925050612c51565b9150600090505b94509492505050565b6000807f7fffffffffffffffffffffffffffffffffffffffffffffffffffffffffffffff831660ff84901c601b01612c9487828885612b6d565b935093505050935093915050565b828054612cae906133f7565b90600052602060002090601f016020900481019282612cd05760008555612d34565b82601f10612d07578280017fffffffffffffffffffffffffffffffffffffffffffffffffffffffffffffff00823516178555612d34565b82800160010185558215612d34579182015b82811115612d34578235825591602001919060010190612d19565b50612d40929150612e10565b5090565b508054600082559060005260206000209081019061100d9190612e10565b508054612d6e906133f7565b6000825580601f10612d7e575050565b601f01602090049060005260206000209081019061100d9190612e10565b828054612da8906133f7565b90600052602060002090601f016020900481019282612dca5760008555612d34565b82601f10612de357805160ff1916838001178555612d34565b82800160010185558215612d34579182015b82811115612d34578251825591602001919060010190612df5565b5b80821115612d405760008155600101612e11565b7fffffffff000000000000000000000000000000000000000000000000000000008116811461100d57600080fd5b600060208284031215612e6557600080fd5b813561157281612e25565b60005b83811015612e8b578181015183820152602001612e73565b838111156110b65750506000910152565b60008151808452612eb4816020860160208601612e70565b601f01601f19169290920160200192915050565b6020815260006115726020830184612e9c565b600060208284031215612eed57600080fd5b5035919050565b80356001600160a01b0381168114612f0b57600080fd5b919050565b60008060408385031215612f2357600080fd5b612f2c83612ef4565b946020939093013593505050565b600080600060608486031215612f4f57600080fd5b612f5884612ef4565b9250612f6660208501612ef4565b9150604084013590509250925092565b600060208284031215612f8857600080fd5b61157282612ef4565b7f4e487b7100000000000000000000000000000000000000000000000000000000600052604160045260246000fd5b604051601f8201601f1916810167ffffffffffffffff81118282101715612fe957612fe9612f91565b604052919050565b600067ffffffffffffffff82111561300b5761300b612f91565b5060051b60200190565b600082601f83011261302657600080fd5b813567ffffffffffffffff81111561304057613040612f91565b6130536020601f19601f84011601612fc0565b81815284602083860101111561306857600080fd5b816020850160208301376000918101602001919091529392505050565b600082601f83011261309657600080fd5b813560206130ab6130a683612ff1565b612fc0565b82815260059290921b840181019181810190868411156130ca57600080fd5b8286015b8481101561310a57803567ffffffffffffffff8111156130ee5760008081fd5b6130fc8986838b0101613015565b8452509183019183016130ce565b509695505050505050565b6000806040838503121561312857600080fd5b823567ffffffffffffffff8082111561314057600080fd5b818501915085601f83011261315457600080fd5b813560206131646130a683612ff1565b82815260059290921b8401810191818101908984111561318357600080fd5b948201945b838610156131a85761319986612ef4565b82529482019490820190613188565b965050860135925050808211156131be57600080fd5b506131cb85828601613085565b9150509250929050565b600080602083850312156131e857600080fd5b823567ffffffffffffffff8082111561320057600080fd5b818501915085601f83011261321457600080fd5b81358181111561322357600080fd5b86602082850101111561323557600080fd5b60209290920196919550909350505050565b6000806040838503121561325a57600080fd5b61326383612ef4565b91506020830135801515811461327857600080fd5b809150509250929050565b6000806000806080858703121561329957600080fd5b6132a285612ef4565b93506132b060208601612ef4565b925060408501359150606085013567ffffffffffffffff8111156132d357600080fd5b6132df87828801613015565b91505092959194509250565b600080604083850312156132fe57600080fd5b823567ffffffffffffffff8082111561331657600080fd5b818501915085601f83011261332a57600080fd5b8135602061333a6130a683612ff1565b82815260059290921b8401810191818101908984111561335957600080fd5b948201945b838610156131a85785358252948201949082019061335e565b6000806040838503121561338a57600080fd5b61339383612ef4565b91506133a160208401612ef4565b90509250929050565b6020808252825182820181905260009190848201906040850190845b818110156133eb5783516001600160a01b0316835292840192918401916001016133c6565b50909695505050505050565b600181811c9082168061340b57607f821691505b60208210811415613445577f4e487b7100000000000000000000000000000000000000000000000000000000600052602260045260246000fd5b50919050565b7f4e487b7100000000000000000000000000000000000000000000000000000000600052603260045260246000fd5b7f4e487b7100000000000000000000000000000000000000000000000000000000600052601160045260246000fd5b60007fffffffffffffffffffffffffffffffffffffffffffffffffffffffffffffffff8214156134db576134db61347a565b5060010190565b60208152816020820152818360408301376000818301604090810191909152601f909201601f19160101919050565b6020808252825482820181905260008481528281209092916040850190845b818110156133eb5783546001600160a01b031683526001938401939285019201613530565b6020808252825182820181905260009190848201906040850190845b818110156133eb57835183529284019291840191600101613571565b60008282101561359f5761359f61347a565b500390565b600082198211156135b7576135b761347a565b500190565b600083516135ce818460208801612e70565b7f3a200000000000000000000000000000000000000000000000000000000000009083019081528351613608816002840160208801612e70565b01600201949350505050565b60008351613626818460208801612e70565b83519083019061363a818360208801612e70565b01949350505050565b6000817fffffffffffffffffffffffffffffffffffffffffffffffffffffffffffffffff048311821515161561367b5761367b61347a565b500290565b60008161368f5761368f61347a565b507fffffffffffffffffffffffffffffffffffffffffffffffffffffffffffffffff0190565b7f4e487b7100000000000000000000000000000000000000000000000000000000600052602160045260246000fd5b60006001600160a01b038087168352808616602084015250836040830152608060608301526137166080830184612e9c565b9695505050505050565b60006020828403121561373257600080fd5b815161157281612e25565b7f4e487b7100000000000000000000000000000000000000000000000000000000600052601260045260246000fd5b60008261377b5761377b61373d565b500490565b60008261378f5761378f61373d565b50069056fea26469706673582212209490374cb0004094149e9ed6a63af51852adaa660b77a6b4e527c42c7d9346ce64736f6c634300080b0033",
  "linkReferences": {},
  "deployedLinkReferences": {}
}